{
  "contractName": "MarketAPI",
  "abi": [
    {
      "inputs": [],
      "stateMutability": "nonpayable",
      "type": "constructor"
    },
    {
      "inputs": [
        {
          "components": [
            {
              "internalType": "string",
              "name": "provider_or_client",
              "type": "string"
            }
          ],
          "internalType": "struct MarketTypes.AddBalanceParams",
          "name": "params",
          "type": "tuple"
        }
      ],
      "name": "add_balance",
      "outputs": [],
      "stateMutability": "payable",
      "type": "function",
      "payable": true
    },
    {
      "inputs": [
        {
          "components": [
            {
              "internalType": "string",
              "name": "provider_or_client",
              "type": "string"
            },
            {
              "internalType": "uint256",
              "name": "tokenAmount",
              "type": "uint256"
            }
          ],
          "internalType": "struct MarketTypes.WithdrawBalanceParams",
          "name": "params",
          "type": "tuple"
        }
      ],
      "name": "withdraw_balance",
      "outputs": [
        {
          "components": [
            {
              "internalType": "uint256",
              "name": "amount_withdrawn",
              "type": "uint256"
            }
          ],
          "internalType": "struct MarketTypes.WithdrawBalanceReturn",
          "name": "",
          "type": "tuple"
        }
      ],
      "stateMutability": "nonpayable",
      "type": "function"
    },
    {
      "inputs": [
        {
          "internalType": "string",
          "name": "addr",
          "type": "string"
        }
      ],
      "name": "get_balance",
      "outputs": [
        {
          "components": [
            {
              "internalType": "uint256",
              "name": "balance",
              "type": "uint256"
            },
            {
              "internalType": "uint256",
              "name": "locked",
              "type": "uint256"
            }
          ],
          "internalType": "struct MarketTypes.GetBalanceReturn",
          "name": "",
          "type": "tuple"
        }
      ],
      "stateMutability": "view",
      "type": "function",
      "constant": true
    },
    {
      "inputs": [
        {
          "components": [
            {
              "internalType": "uint64",
              "name": "id",
              "type": "uint64"
            }
          ],
          "internalType": "struct MarketTypes.GetDealDataCommitmentParams",
          "name": "params",
          "type": "tuple"
        }
      ],
      "name": "get_deal_data_commitment",
      "outputs": [
        {
          "components": [
            {
              "internalType": "bytes",
              "name": "data",
              "type": "bytes"
            },
            {
              "internalType": "uint64",
              "name": "size",
              "type": "uint64"
            }
          ],
          "internalType": "struct MarketTypes.GetDealDataCommitmentReturn",
          "name": "",
          "type": "tuple"
        }
      ],
      "stateMutability": "view",
      "type": "function",
      "constant": true
    },
    {
      "inputs": [
        {
          "components": [
            {
              "internalType": "uint64",
              "name": "id",
              "type": "uint64"
            }
          ],
          "internalType": "struct MarketTypes.GetDealClientParams",
          "name": "params",
          "type": "tuple"
        }
      ],
      "name": "get_deal_client",
      "outputs": [
        {
          "components": [
            {
              "internalType": "string",
              "name": "client",
              "type": "string"
            }
          ],
          "internalType": "struct MarketTypes.GetDealClientReturn",
          "name": "",
          "type": "tuple"
        }
      ],
      "stateMutability": "view",
      "type": "function",
      "constant": true
    },
    {
      "inputs": [
        {
          "components": [
            {
              "internalType": "uint64",
              "name": "id",
              "type": "uint64"
            }
          ],
          "internalType": "struct MarketTypes.GetDealProviderParams",
          "name": "params",
          "type": "tuple"
        }
      ],
      "name": "get_deal_provider",
      "outputs": [
        {
          "components": [
            {
              "internalType": "string",
              "name": "provider",
              "type": "string"
            }
          ],
          "internalType": "struct MarketTypes.GetDealProviderReturn",
          "name": "",
          "type": "tuple"
        }
      ],
      "stateMutability": "view",
      "type": "function",
      "constant": true
    },
    {
      "inputs": [
        {
          "components": [
            {
              "internalType": "uint64",
              "name": "id",
              "type": "uint64"
            }
          ],
          "internalType": "struct MarketTypes.GetDealLabelParams",
          "name": "params",
          "type": "tuple"
        }
      ],
      "name": "get_deal_label",
      "outputs": [
        {
          "components": [
            {
              "internalType": "string",
              "name": "label",
              "type": "string"
            }
          ],
          "internalType": "struct MarketTypes.GetDealLabelReturn",
          "name": "",
          "type": "tuple"
        }
      ],
      "stateMutability": "view",
      "type": "function",
      "constant": true
    },
    {
      "inputs": [
        {
          "components": [
            {
              "internalType": "uint64",
              "name": "id",
              "type": "uint64"
            }
          ],
          "internalType": "struct MarketTypes.GetDealTermParams",
          "name": "params",
          "type": "tuple"
        }
      ],
      "name": "get_deal_term",
      "outputs": [
        {
          "components": [
            {
              "internalType": "int64",
              "name": "start",
              "type": "int64"
            },
            {
              "internalType": "int64",
              "name": "end",
              "type": "int64"
            }
          ],
          "internalType": "struct MarketTypes.GetDealTermReturn",
          "name": "",
          "type": "tuple"
        }
      ],
      "stateMutability": "view",
      "type": "function",
      "constant": true
    },
    {
      "inputs": [
        {
          "components": [
            {
              "internalType": "uint64",
              "name": "id",
              "type": "uint64"
            }
          ],
          "internalType": "struct MarketTypes.GetDealEpochPriceParams",
          "name": "params",
          "type": "tuple"
        }
      ],
      "name": "get_deal_total_price",
      "outputs": [
        {
          "components": [
            {
              "internalType": "uint256",
              "name": "price_per_epoch",
              "type": "uint256"
            }
          ],
          "internalType": "struct MarketTypes.GetDealEpochPriceReturn",
          "name": "",
          "type": "tuple"
        }
      ],
      "stateMutability": "view",
      "type": "function",
      "constant": true
    },
    {
      "inputs": [
        {
          "components": [
            {
              "internalType": "uint64",
              "name": "id",
              "type": "uint64"
            }
          ],
          "internalType": "struct MarketTypes.GetDealClientCollateralParams",
          "name": "params",
          "type": "tuple"
        }
      ],
      "name": "get_deal_client_collateral",
      "outputs": [
        {
          "components": [
            {
              "internalType": "uint256",
              "name": "collateral",
              "type": "uint256"
            }
          ],
          "internalType": "struct MarketTypes.GetDealClientCollateralReturn",
          "name": "",
          "type": "tuple"
        }
      ],
      "stateMutability": "view",
      "type": "function",
      "constant": true
    },
    {
      "inputs": [
        {
          "components": [
            {
              "internalType": "uint64",
              "name": "id",
              "type": "uint64"
            }
          ],
          "internalType": "struct MarketTypes.GetDealProviderCollateralParams",
          "name": "params",
          "type": "tuple"
        }
      ],
      "name": "get_deal_provider_collateral",
      "outputs": [
        {
          "components": [
            {
              "internalType": "uint256",
              "name": "collateral",
              "type": "uint256"
            }
          ],
          "internalType": "struct MarketTypes.GetDealProviderCollateralReturn",
          "name": "",
          "type": "tuple"
        }
      ],
      "stateMutability": "view",
      "type": "function",
      "constant": true
    },
    {
      "inputs": [
        {
          "components": [
            {
              "internalType": "uint64",
              "name": "id",
              "type": "uint64"
            }
          ],
          "internalType": "struct MarketTypes.GetDealVerifiedParams",
          "name": "params",
          "type": "tuple"
        }
      ],
      "name": "get_deal_verified",
      "outputs": [
        {
          "components": [
            {
              "internalType": "bool",
              "name": "verified",
              "type": "bool"
            }
          ],
          "internalType": "struct MarketTypes.GetDealVerifiedReturn",
          "name": "",
          "type": "tuple"
        }
      ],
      "stateMutability": "view",
      "type": "function",
      "constant": true
    },
    {
      "inputs": [
        {
          "components": [
            {
              "internalType": "uint64",
              "name": "id",
              "type": "uint64"
            }
          ],
          "internalType": "struct MarketTypes.GetDealActivationParams",
          "name": "params",
          "type": "tuple"
        }
      ],
      "name": "get_deal_activation",
      "outputs": [
        {
          "components": [
            {
              "internalType": "int64",
              "name": "activated",
              "type": "int64"
            },
            {
              "internalType": "int64",
              "name": "terminated",
              "type": "int64"
            }
          ],
          "internalType": "struct MarketTypes.GetDealActivationReturn",
          "name": "",
          "type": "tuple"
        }
      ],
      "stateMutability": "view",
      "type": "function",
      "constant": true
    },
    {
      "inputs": [
        {
          "internalType": "bytes",
          "name": "raw_auth_params",
          "type": "bytes"
        },
        {
          "internalType": "address",
          "name": "callee",
          "type": "address"
        }
      ],
      "name": "publish_storage_deals",
      "outputs": [],
      "stateMutability": "nonpayable",
      "type": "function"
    }
  ],
  "bytecode": "0x60806040523480156200001157600080fd5b50620000226200002860201b60201c565b620007b0565b62000032620003be565b6043816000019067ffffffffffffffff16908167ffffffffffffffff16815250506040518060600160405280604081526020016200298a60409139816020018190525062800000816040019067ffffffffffffffff16908167ffffffffffffffff168152505060008160600190151590811515815250506040518060400160405280600681526020017f743031313039000000000000000000000000000000000000000000000000000081525081608001819052506040518060400160405280600681526020017f74303131313300000000000000000000000000000000000000000000000000008152508160a00181905250604051806060016040528060348152602001620029ca603491398160c0018190525061629d8160e0019060070b908160070b815250506208517e81610100019060070b908160070b815250506501001d1bf80081610120018181525050600081610140018181525050600081610160018181525050600181610180019060070b908160070b815250506000816101a0019060070b908160070b815250508060016000836000015167ffffffffffffffff1667ffffffffffffffff16815260200190815260200160002060008201518160000160006101000a81548167ffffffffffffffff021916908367ffffffffffffffff1602179055506020820151816001019081620002349190620006c9565b5060408201518160020160006101000a81548167ffffffffffffffff021916908367ffffffffffffffff16021790555060608201518160020160086101000a81548160ff02191690831515021790555060808201518160030190816200029b9190620006c9565b5060a0820151816004019081620002b39190620006c9565b5060c0820151816005019081620002cb9190620006c9565b5060e08201518160060160006101000a81548167ffffffffffffffff021916908360070b67ffffffffffffffff1602179055506101008201518160060160086101000a81548167ffffffffffffffff021916908360070b67ffffffffffffffff16021790555061012082015181600701556101408201518160080155610160820151816009015561018082015181600a0160006101000a81548167ffffffffffffffff021916908360070b67ffffffffffffffff1602179055506101a082015181600a0160086101000a81548167ffffffffffffffff021916908360070b67ffffffffffffffff16021790555090505050565b604051806101c00160405280600067ffffffffffffffff16815260200160608152602001600067ffffffffffffffff168152602001600015158152602001606081526020016060815260200160608152602001600060070b8152602001600060070b8152602001600081526020016000815260200160008152602001600060070b8152602001600060070b81525090565b600081519050919050565b7f4e487b7100000000000000000000000000000000000000000000000000000000600052604160045260246000fd5b7f4e487b7100000000000000000000000000000000000000000000000000000000600052602260045260246000fd5b60006002820490506001821680620004d157607f821691505b602082108103620004e757620004e662000489565b5b50919050565b60008190508160005260206000209050919050565b60006020601f8301049050919050565b600082821b905092915050565b600060088302620005517fffffffffffffffffffffffffffffffffffffffffffffffffffffffffffffffff8262000512565b6200055d868362000512565b95508019841693508086168417925050509392505050565b6000819050919050565b6000819050919050565b6000620005aa620005a46200059e8462000575565b6200057f565b62000575565b9050919050565b6000819050919050565b620005c68362000589565b620005de620005d582620005b1565b8484546200051f565b825550505050565b600090565b620005f5620005e6565b62000602818484620005bb565b505050565b5b818110156200062a576200061e600082620005eb565b60018101905062000608565b5050565b601f82111562000679576200064381620004ed565b6200064e8462000502565b810160208510156200065e578190505b620006766200066d8562000502565b83018262000607565b50505b505050565b600082821c905092915050565b60006200069e600019846008026200067e565b1980831691505092915050565b6000620006b983836200068b565b9150826002028217905092915050565b620006d4826200044f565b67ffffffffffffffff811115620006f057620006ef6200045a565b5b620006fc8254620004b8565b620007098282856200062e565b600060209050601f8311600181146200074157600084156200072c578287015190505b620007388582620006ab565b865550620007a8565b601f1984166200075186620004ed565b60005b828110156200077b5784890151825560018201915060208501945060208101905062000754565b868310156200079b578489015162000797601f8916826200068b565b8355505b6001600288020188555050505b505050505050565b6121ca80620007c06000396000f3fe6080604052600436106100dd5760003560e01c80638777b7c81161007f5780639f4b7c7d116100595780639f4b7c7d14610330578063ad36f1841461036d578063ebf66ef1146103aa578063f241560c146103c6576100dd565b80638777b7c8146102795780638b7f02fd146102b6578063991e04a4146102f3576100dd565b8063412a4b9a116100bb578063412a4b9a1461018557806355d95609146101c25780635c4ddef3146101ff57806365a9b4a01461023c576100dd565b806313178dc1146100e25780631a2811e71461011f578063344096421461015c575b600080fd5b3480156100ee57600080fd5b50610109600480360381019061010491906112ea565b610403565b604051610116919061135e565b60405180910390f35b34801561012b57600080fd5b50610146600480360381019061014191906113f5565b6104e6565b604051610153919061143e565b60405180910390f35b34801561016857600080fd5b50610183600480360381019061017e9190611558565b61058b565b005b34801561019157600080fd5b506101ac60048036038101906101a791906115f0565b6106d3565b6040516101b99190611639565b60405180910390f35b3480156101ce57600080fd5b506101e960048036038101906101e49190611690565b610778565b6040516101f69190611766565b60405180910390f35b34801561020b57600080fd5b50610226600480360381019061022191906117c4565b6108a5565b6040516102339190611828565b60405180910390f35b34801561024857600080fd5b50610263600480360381019061025e9190611843565b610959565b60405161027091906118bb565b60405180910390f35b34801561028557600080fd5b506102a0600480360381019061029b9190611912565b6109a1565b6040516102ad919061195b565b60405180910390f35b3480156102c257600080fd5b506102dd60048036038101906102d891906119b2565b610a46565b6040516102ea9190611a09565b60405180910390f35b3480156102ff57600080fd5b5061031a60048036038101906103159190611a67565b610b73565b6040516103279190611b35565b60405180910390f35b34801561033c57600080fd5b5061035760048036038101906103529190611b93565b610c71565b6040516103649190611bea565b60405180910390f35b34801561037957600080fd5b50610394600480360381019061038f9190611c48565b610d9e565b6040516103a19190611cc0565b60405180910390f35b6103c460048036038101906103bf9190611d33565b610e97565b005b3480156103d257600080fd5b506103ed60048036038101906103e89190611db8565b610ed3565b6040516103fa9190611e14565b60405180910390f35b61040b610fcc565b60008083600001516040516104209190611e6b565b908152602001604051809103902054905082602001516000846000015160405161044a9190611e6b565b908152602001604051809103902054106104a7578260200151600084600001516040516104779190611e6b565b908152602001604051809103902060008282546104949190611eb1565b92505081905550826020015190506104cf565b60008084600001516040516104bc9190611e6b565b9081526020016040518091039020819055505b604051806020016040528082815250915050919050565b6104ee610fdf565b600060016000846000015167ffffffffffffffff1667ffffffffffffffff16815260200190815260200160002060000160009054906101000a900467ffffffffffffffff1667ffffffffffffffff161161054757600080fd5b604051806020016040528060016000856000015167ffffffffffffffff1667ffffffffffffffff168152602001908152602001600020600801548152509050919050565b60008173ffffffffffffffffffffffffffffffffffffffff166000639d8b0678856040516024016105be93929190611fcc565b6040516020818303038152906040527f868e10c4000000000000000000000000000000000000000000000000000000007bffffffffffffffffffffffffffffffffffffffffffffffffffffffff19166020820180517bffffffffffffffffffffffffffffffffffffffffffffffffffffffff83818316178352505050506040516106489190612046565b6000604051808303816000865af19150503d8060008114610685576040519150601f19603f3d011682016040523d82523d6000602084013e61068a565b606091505b50509050806106ce576040517f08c379a00000000000000000000000000000000000000000000000000000000081526004016106c5906120e0565b60405180910390fd5b505050565b6106db610ff2565b600060016000846000015167ffffffffffffffff1667ffffffffffffffff16815260200190815260200160002060000160009054906101000a900467ffffffffffffffff1667ffffffffffffffff161161073457600080fd5b604051806020016040528060016000856000015167ffffffffffffffff1667ffffffffffffffff168152602001908152602001600020600701548152509050919050565b610780611005565b600060016000846000015167ffffffffffffffff1667ffffffffffffffff16815260200190815260200160002060000160009054906101000a900467ffffffffffffffff1667ffffffffffffffff16116107d957600080fd5b604051806020016040528060016000856000015167ffffffffffffffff1667ffffffffffffffff168152602001908152602001600020600401805461081d9061212f565b80601f01602080910402602001604051908101604052809291908181526020018280546108499061212f565b80156108965780601f1061086b57610100808354040283529160200191610896565b820191906000526020600020905b81548152906001019060200180831161087957829003601f168201915b50505050508152509050919050565b6108ad611018565b600060016000846000015167ffffffffffffffff1667ffffffffffffffff16815260200190815260200160002060000160009054906101000a900467ffffffffffffffff1667ffffffffffffffff161161090657600080fd5b604051806020016040528060016000856000015167ffffffffffffffff1667ffffffffffffffff16815260200190815260200160002060020160089054906101000a900460ff1615158152509050919050565b61096161102d565b600080836040516109729190611e6b565b908152602001604051809103902054905060405180604001604052808281526020016000815250915050919050565b6109a9611047565b600060016000846000015167ffffffffffffffff1667ffffffffffffffff16815260200190815260200160002060000160009054906101000a900467ffffffffffffffff1667ffffffffffffffff1611610a0257600080fd5b604051806020016040528060016000856000015167ffffffffffffffff1667ffffffffffffffff168152602001908152602001600020600901548152509050919050565b610a4e61105a565b600060016000846000015167ffffffffffffffff1667ffffffffffffffff16815260200190815260200160002060000160009054906101000a900467ffffffffffffffff1667ffffffffffffffff1611610aa757600080fd5b604051806020016040528060016000856000015167ffffffffffffffff1667ffffffffffffffff1681526020019081526020016000206003018054610aeb9061212f565b80601f0160208091040260200160405190810160405280929190818152602001828054610b179061212f565b8015610b645780601f10610b3957610100808354040283529160200191610b64565b820191906000526020600020905b815481529060010190602001808311610b4757829003601f168201915b50505050508152509050919050565b610b7b61106d565b600060016000846000015167ffffffffffffffff1667ffffffffffffffff16815260200190815260200160002060000160009054906101000a900467ffffffffffffffff1667ffffffffffffffff1611610bd457600080fd5b60405180604001604052806040518060400160405280600881526020017f3078313131313131000000000000000000000000000000000000000000000000815250815260200160016000856000015167ffffffffffffffff1667ffffffffffffffff16815260200190815260200160002060020160009054906101000a900467ffffffffffffffff1667ffffffffffffffff168152509050919050565b610c79611091565b600060016000846000015167ffffffffffffffff1667ffffffffffffffff16815260200190815260200160002060000160009054906101000a900467ffffffffffffffff1667ffffffffffffffff1611610cd257600080fd5b604051806020016040528060016000856000015167ffffffffffffffff1667ffffffffffffffff1681526020019081526020016000206005018054610d169061212f565b80601f0160208091040260200160405190810160405280929190818152602001828054610d429061212f565b8015610d8f5780601f10610d6457610100808354040283529160200191610d8f565b820191906000526020600020905b815481529060010190602001808311610d7257829003601f168201915b50505050508152509050919050565b610da66110a4565b600060016000846000015167ffffffffffffffff1667ffffffffffffffff16815260200190815260200160002060000160009054906101000a900467ffffffffffffffff1667ffffffffffffffff1611610dff57600080fd5b604051806040016040528060016000856000015167ffffffffffffffff1667ffffffffffffffff16815260200190815260200160002060060160009054906101000a900460070b60070b815260200160016000856000015167ffffffffffffffff1667ffffffffffffffff16815260200190815260200160002060060160089054906101000a900460070b60070b8152509050919050565b3460008260000151604051610eac9190611e6b565b90815260200160405180910390206000828254610ec99190612160565b9250508190555050565b610edb6110c4565b600060016000846000015167ffffffffffffffff1667ffffffffffffffff16815260200190815260200160002060000160009054906101000a900467ffffffffffffffff1667ffffffffffffffff1611610f3457600080fd5b604051806040016040528060016000856000015167ffffffffffffffff1667ffffffffffffffff168152602001908152602001600020600a0160009054906101000a900460070b60070b815260200160016000856000015167ffffffffffffffff1667ffffffffffffffff168152602001908152602001600020600a0160089054906101000a900460070b60070b8152509050919050565b6040518060200160405280600081525090565b6040518060200160405280600081525090565b6040518060200160405280600081525090565b6040518060200160405280606081525090565b60405180602001604052806000151581525090565b604051806040016040528060008152602001600081525090565b6040518060200160405280600081525090565b6040518060200160405280606081525090565b604051806040016040528060608152602001600067ffffffffffffffff1681525090565b6040518060200160405280606081525090565b6040518060400160405280600060070b8152602001600060070b81525090565b6040518060400160405280600060070b8152602001600060070b81525090565b6000604051905090565b600080fd5b600080fd5b600080fd5b6000601f19601f8301169050919050565b7f4e487b7100000000000000000000000000000000000000000000000000000000600052604160045260246000fd5b611146826110fd565b810181811067ffffffffffffffff821117156111655761116461110e565b5b80604052505050565b60006111786110e4565b9050611184828261113d565b919050565b600080fd5b600080fd5b600080fd5b600067ffffffffffffffff8211156111b3576111b261110e565b5b6111bc826110fd565b9050602081019050919050565b82818337600083830152505050565b60006111eb6111e684611198565b61116e565b90508281526020810184848401111561120757611206611193565b5b6112128482856111c9565b509392505050565b600082601f83011261122f5761122e61118e565b5b813561123f8482602086016111d8565b91505092915050565b6000819050919050565b61125b81611248565b811461126657600080fd5b50565b60008135905061127881611252565b92915050565b600060408284031215611294576112936110f8565b5b61129e604061116e565b9050600082013567ffffffffffffffff8111156112be576112bd611189565b5b6112ca8482850161121a565b60008301525060206112de84828501611269565b60208301525092915050565b600060208284031215611300576112ff6110ee565b5b600082013567ffffffffffffffff81111561131e5761131d6110f3565b5b61132a8482850161127e565b91505092915050565b61133c81611248565b82525050565b6020820160008201516113586000850182611333565b50505050565b60006020820190506113736000830184611342565b92915050565b600067ffffffffffffffff82169050919050565b61139681611379565b81146113a157600080fd5b50565b6000813590506113b38161138d565b92915050565b6000602082840312156113cf576113ce6110f8565b5b6113d9602061116e565b905060006113e9848285016113a4565b60008301525092915050565b60006020828403121561140b5761140a6110ee565b5b6000611419848285016113b9565b91505092915050565b6020820160008201516114386000850182611333565b50505050565b60006020820190506114536000830184611422565b92915050565b600067ffffffffffffffff8211156114745761147361110e565b5b61147d826110fd565b9050602081019050919050565b600061149d61149884611459565b61116e565b9050828152602081018484840111156114b9576114b8611193565b5b6114c48482856111c9565b509392505050565b600082601f8301126114e1576114e061118e565b5b81356114f184826020860161148a565b91505092915050565b600073ffffffffffffffffffffffffffffffffffffffff82169050919050565b6000611525826114fa565b9050919050565b6115358161151a565b811461154057600080fd5b50565b6000813590506115528161152c565b92915050565b6000806040838503121561156f5761156e6110ee565b5b600083013567ffffffffffffffff81111561158d5761158c6110f3565b5b611599858286016114cc565b92505060206115aa85828601611543565b9150509250929050565b6000602082840312156115ca576115c96110f8565b5b6115d4602061116e565b905060006115e4848285016113a4565b60008301525092915050565b600060208284031215611606576116056110ee565b5b6000611614848285016115b4565b91505092915050565b6020820160008201516116336000850182611333565b50505050565b600060208201905061164e600083018461161d565b92915050565b60006020828403121561166a576116696110f8565b5b611674602061116e565b90506000611684848285016113a4565b60008301525092915050565b6000602082840312156116a6576116a56110ee565b5b60006116b484828501611654565b91505092915050565b600081519050919050565b600082825260208201905092915050565b60005b838110156116f75780820151818401526020810190506116dc565b60008484015250505050565b600061170e826116bd565b61171881856116c8565b93506117288185602086016116d9565b611731816110fd565b840191505092915050565b600060208301600083015184820360008601526117598282611703565b9150508091505092915050565b60006020820190508181036000830152611780818461173c565b905092915050565b60006020828403121561179e5761179d6110f8565b5b6117a8602061116e565b905060006117b8848285016113a4565b60008301525092915050565b6000602082840312156117da576117d96110ee565b5b60006117e884828501611788565b91505092915050565b60008115159050919050565b611806816117f1565b82525050565b60208201600082015161182260008501826117fd565b50505050565b600060208201905061183d600083018461180c565b92915050565b600060208284031215611859576118586110ee565b5b600082013567ffffffffffffffff811115611877576118766110f3565b5b6118838482850161121a565b91505092915050565b6040820160008201516118a26000850182611333565b5060208201516118b56020850182611333565b50505050565b60006040820190506118d0600083018461188c565b92915050565b6000602082840312156118ec576118eb6110f8565b5b6118f6602061116e565b90506000611906848285016113a4565b60008301525092915050565b600060208284031215611928576119276110ee565b5b6000611936848285016118d6565b91505092915050565b6020820160008201516119556000850182611333565b50505050565b6000602082019050611970600083018461193f565b92915050565b60006020828403121561198c5761198b6110f8565b5b611996602061116e565b905060006119a6848285016113a4565b60008301525092915050565b6000602082840312156119c8576119c76110ee565b5b60006119d684828501611976565b91505092915050565b600060208301600083015184820360008601526119fc8282611703565b9150508091505092915050565b60006020820190508181036000830152611a2381846119df565b905092915050565b600060208284031215611a4157611a406110f8565b5b611a4b602061116e565b90506000611a5b848285016113a4565b60008301525092915050565b600060208284031215611a7d57611a7c6110ee565b5b6000611a8b84828501611a2b565b91505092915050565b600081519050919050565b600082825260208201905092915050565b6000611abb82611a94565b611ac58185611a9f565b9350611ad58185602086016116d9565b611ade816110fd565b840191505092915050565b611af281611379565b82525050565b60006040830160008301518482036000860152611b158282611ab0565b9150506020830151611b2a6020860182611ae9565b508091505092915050565b60006020820190508181036000830152611b4f8184611af8565b905092915050565b600060208284031215611b6d57611b6c6110f8565b5b611b77602061116e565b90506000611b87848285016113a4565b60008301525092915050565b600060208284031215611ba957611ba86110ee565b5b6000611bb784828501611b57565b91505092915050565b60006020830160008301518482036000860152611bdd8282611703565b9150508091505092915050565b60006020820190508181036000830152611c048184611bc0565b905092915050565b600060208284031215611c2257611c216110f8565b5b611c2c602061116e565b90506000611c3c848285016113a4565b60008301525092915050565b600060208284031215611c5e57611c5d6110ee565b5b6000611c6c84828501611c0c565b91505092915050565b60008160070b9050919050565b611c8b81611c75565b82525050565b604082016000820151611ca76000850182611c82565b506020820151611cba6020850182611c82565b50505050565b6000604082019050611cd56000830184611c91565b92915050565b600060208284031215611cf157611cf06110f8565b5b611cfb602061116e565b9050600082013567ffffffffffffffff811115611d1b57611d1a611189565b5b611d278482850161121a565b60008301525092915050565b600060208284031215611d4957611d486110ee565b5b600082013567ffffffffffffffff811115611d6757611d666110f3565b5b611d7384828501611cdb565b91505092915050565b600060208284031215611d9257611d916110f8565b5b611d9c602061116e565b90506000611dac848285016113a4565b60008301525092915050565b600060208284031215611dce57611dcd6110ee565b5b6000611ddc84828501611d7c565b91505092915050565b604082016000820151611dfb6000850182611c82565b506020820151611e0e6020850182611c82565b50505050565b6000604082019050611e296000830184611de5565b92915050565b600081905092915050565b6000611e45826116bd565b611e4f8185611e2f565b9350611e5f8185602086016116d9565b80840191505092915050565b6000611e778284611e3a565b915081905092915050565b7f4e487b7100000000000000000000000000000000000000000000000000000000600052601160045260246000fd5b6000611ebc82611248565b9150611ec783611248565b9250828203905081811115611edf57611ede611e82565b5b92915050565b6000819050919050565b600060ff82169050919050565b6000819050919050565b6000611f21611f1c611f1784611ee5565b611efc565b611eef565b9050919050565b611f3181611f06565b82525050565b6000819050919050565b600063ffffffff82169050919050565b6000611f6c611f67611f6284611f37565b611efc565b611f41565b9050919050565b611f7c81611f51565b82525050565b600082825260208201905092915050565b6000611f9e82611a94565b611fa88185611f82565b9350611fb88185602086016116d9565b611fc1816110fd565b840191505092915050565b6000606082019050611fe16000830186611f28565b611fee6020830185611f73565b81810360408301526120008184611f93565b9050949350505050565b600081905092915050565b600061202082611a94565b61202a818561200a565b935061203a8185602086016116d9565b80840191505092915050565b60006120528284612015565b915081905092915050565b600082825260208201905092915050565b7f636c69656e7420636f6e7472616374206661696c656420746f20617574686f7260008201527f697a65206465616c207075626c69736800000000000000000000000000000000602082015250565b60006120ca60308361205d565b91506120d58261206e565b604082019050919050565b600060208201905081810360008301526120f9816120bd565b9050919050565b7f4e487b7100000000000000000000000000000000000000000000000000000000600052602260045260246000fd5b6000600282049050600182168061214757607f821691505b60208210810361215a57612159612100565b5b50919050565b600061216b82611248565b915061217683611248565b925082820190508082111561218e5761218d611e82565b5b9291505056fea2646970667358221220922e9e4daee27c8c57bacce3e7dc1a621a223326d60c799c7661cd4d66f3a48164736f6c634300081100336261676136656134736561716c6b67366d737335717335366a7174616a673579637268706b6a326236366367646b756b6632716a6d6d7a7a3661796b737563696d41584367354149673859425862466a7464427931695a6a704459417752537430656c474c463547765471756c4569693156634d",
  "immutableReferences": {},
  "source": "// SPDX-License-Identifier: Apache-2.0\npragma solidity >=0.4.25 <=0.8.17;\n\nimport \"./types/MarketTypes.sol\";\n\n/// @title This contract is a proxy to the singleton Storage Market actor (address: f05). Calling one of its methods will result in a cross-actor call being performed. However, in this mock library, no actual call is performed.\n/// @author Zondax AG\n/// @dev Methods prefixed with mock_ will not be available in the real library. These methods are merely used to set mock state. Note that this interface will likely break in the future as we align it\n//       with that of the real library!\ncontract MarketAPI {\n    mapping(string => uint256) balances;\n    mapping(uint64 => MarketTypes.MockDeal) deals;\n\n    constructor() {\n        mock_generate_deals();\n    }\n\n    /// @notice Deposits the received value into the balance held in escrow.\n    /// @dev Because this is a mock method, no real balance is being deducted from the caller, nor incremented in the Storage Market actor (f05).\n    function add_balance(\n        MarketTypes.AddBalanceParams memory params\n    ) public payable {\n        balances[params.provider_or_client] += msg.value;\n    }\n\n    /// @notice Attempt to withdraw the specified amount from the balance held in escrow.\n    /// @notice If less than the specified amount is available, yields the entire available balance.\n    /// @dev This method should be called by an approved address, but the mock does not check that the caller is an approved party.\n    /// @dev Because this is a mock method, no real balance is deposited in the designated address, nor decremented from the Storage Market actor (f05).\n    function withdraw_balance(\n        MarketTypes.WithdrawBalanceParams memory params\n    ) public returns (MarketTypes.WithdrawBalanceReturn memory) {\n        uint256 tmp = balances[params.provider_or_client];\n        if (balances[params.provider_or_client] >= params.tokenAmount) {\n            balances[params.provider_or_client] -= params.tokenAmount;\n            tmp = params.tokenAmount;\n        } else {\n            balances[params.provider_or_client] = 0;\n        }\n\n        return MarketTypes.WithdrawBalanceReturn(tmp);\n    }\n\n    /// @return the escrow balance and locked amount for an address.\n    function get_balance(\n        string memory addr\n    ) public view returns (MarketTypes.GetBalanceReturn memory) {\n        uint256 actualBalance = balances[addr];\n\n        return MarketTypes.GetBalanceReturn(actualBalance, 0);\n    }\n\n    /// @return the data commitment and size of a deal proposal.\n    /// @notice This will be available after the deal is published (whether or not is is activated) and up until some undefined period after it is terminated.\n    /// @dev set data values correctly, currently returning fixed data, feel free to adjust in your local mock.\n    function get_deal_data_commitment(\n        MarketTypes.GetDealDataCommitmentParams memory params\n    ) public view returns (MarketTypes.GetDealDataCommitmentReturn memory) {\n        require(deals[params.id].id > 0);\n\n        return\n            MarketTypes.GetDealDataCommitmentReturn(\n                bytes(\"0x111111\"),\n                deals[params.id].size\n            );\n    }\n\n    /// @return the client of a deal proposal.\n    function get_deal_client(\n        MarketTypes.GetDealClientParams memory params\n    ) public view returns (MarketTypes.GetDealClientReturn memory) {\n        require(deals[params.id].id > 0);\n\n        return MarketTypes.GetDealClientReturn(deals[params.id].client);\n    }\n\n    /// @return the provider of a deal proposal.\n    function get_deal_provider(\n        MarketTypes.GetDealProviderParams memory params\n    ) public view returns (MarketTypes.GetDealProviderReturn memory) {\n        require(deals[params.id].id > 0);\n\n        return MarketTypes.GetDealProviderReturn(deals[params.id].provider);\n    }\n\n    /// @return the label of a deal proposal.\n    function get_deal_label(\n        MarketTypes.GetDealLabelParams memory params\n    ) public view returns (MarketTypes.GetDealLabelReturn memory) {\n        require(deals[params.id].id > 0);\n\n        return MarketTypes.GetDealLabelReturn(deals[params.id].label);\n    }\n\n    /// @return the start epoch and duration (in epochs) of a deal proposal.\n    function get_deal_term(\n        MarketTypes.GetDealTermParams memory params\n    ) public view returns (MarketTypes.GetDealTermReturn memory) {\n        require(deals[params.id].id > 0);\n\n        return\n            MarketTypes.GetDealTermReturn(\n                deals[params.id].start,\n                deals[params.id].end\n            );\n    }\n\n    /// @return the per-epoch price of a deal proposal.\n    function get_deal_total_price(\n        MarketTypes.GetDealEpochPriceParams memory params\n    ) public view returns (MarketTypes.GetDealEpochPriceReturn memory) {\n        require(deals[params.id].id > 0);\n\n        return\n            MarketTypes.GetDealEpochPriceReturn(\n                deals[params.id].price_per_epoch\n            );\n    }\n\n    /// @return the client collateral requirement for a deal proposal.\n    function get_deal_client_collateral(\n        MarketTypes.GetDealClientCollateralParams memory params\n    ) public view returns (MarketTypes.GetDealClientCollateralReturn memory) {\n        require(deals[params.id].id > 0);\n\n        return\n            MarketTypes.GetDealClientCollateralReturn(\n                deals[params.id].client_collateral\n            );\n    }\n\n    /// @return the provider collateral requirement for a deal proposal.\n    function get_deal_provider_collateral(\n        MarketTypes.GetDealProviderCollateralParams memory params\n    ) public view returns (MarketTypes.GetDealProviderCollateralReturn memory) {\n        require(deals[params.id].id > 0);\n\n        return\n            MarketTypes.GetDealProviderCollateralReturn(\n                deals[params.id].provider_collateral\n            );\n    }\n\n    /// @return the verified flag for a deal proposal.\n    /// @notice Note that the source of truth for verified allocations and claims is the verified registry actor.\n    function get_deal_verified(\n        MarketTypes.GetDealVerifiedParams memory params\n    ) public view returns (MarketTypes.GetDealVerifiedReturn memory) {\n        require(deals[params.id].id > 0);\n\n        return MarketTypes.GetDealVerifiedReturn(deals[params.id].verified);\n    }\n\n    /// @notice Fetches activation state for a deal.\n    /// @notice This will be available from when the proposal is published until an undefined period after the deal finishes (either normally or by termination).\n    /// @return USR_NOT_FOUND if the deal doesn't exist (yet), or EX_DEAL_EXPIRED if the deal has been removed from state.\n    function get_deal_activation(\n        MarketTypes.GetDealActivationParams memory params\n    ) public view returns (MarketTypes.GetDealActivationReturn memory) {\n        require(deals[params.id].id > 0);\n\n        return\n            MarketTypes.GetDealActivationReturn(\n                deals[params.id].activated,\n                deals[params.id].terminated\n            );\n    }\n\n    /// @notice Publish a new set of storage deals (not yet included in a sector).\n    function publish_storage_deals(bytes memory raw_auth_params, address callee) public {\n        // calls standard filecoin receiver on message authentication api method number\n        (bool success, ) = callee.call(\n            abi.encodeWithSignature(\n                \"handle_filecoin_method(uint64,uint64,bytes)\",\n                0,\n                2643134072,\n                raw_auth_params\n            )\n        );\n        require(success, \"client contract failed to authorize deal publish\");\n    }\n\n    /// @notice Adds mock deal data to the internal state of this mock.\n    /// @dev Feel free to adjust the data here to make it align with deals in your network.\n    function mock_generate_deals() internal {\n        MarketTypes.MockDeal memory deal_67;\n        deal_67.id = 67;\n        deal_67\n            .cid = \"baga6ea4seaqlkg6mss5qs56jqtajg5ycrhpkj2b66cgdkukf2qjmmzz6ayksuci\";\n        deal_67.size = 8388608;\n        deal_67.verified = false;\n        deal_67.client = \"t01109\";\n        deal_67.provider = \"t01113\";\n        deal_67.label = \"mAXCg5AIg8YBXbFjtdBy1iZjpDYAwRSt0elGLF5GvTqulEii1VcM\";\n        deal_67.start = 25245;\n        deal_67.end = 545150;\n        deal_67.price_per_epoch = 1100000000000;\n        deal_67.provider_collateral = 0;\n        deal_67.client_collateral = 0;\n        deal_67.activated = 1;\n        deal_67.terminated = 0;\n\n        deals[deal_67.id] = deal_67;\n\n        // As EVM smart contract has a limited capacity for size (24KiB), we cannot set all deals directly here.\n        // Please, take them from docs.\n\n        // Add or replace more deals here.\n    }\n}",
  "sourcePath": "/Users/user/Desktop/fevm/contracts/MarketAPI.sol",
  "compiler": {
    "name": "solc",
    "version": "0.8.17+commit.8df45f5f.Emscripten.clang"
  },
  "schemaVersion": "3.4.10",
  "updatedAt": "2022-11-19T23:43:08.426Z",
  "networkType": "ethereum",
  "devdoc": {
    "author": "Zondax AG",
    "details": "Methods prefixed with mock_ will not be available in the real library. These methods are merely used to set mock state. Note that this interface will likely break in the future as we align it",
    "kind": "dev",
    "methods": {
      "add_balance((string))": {
        "details": "Because this is a mock method, no real balance is being deducted from the caller, nor incremented in the Storage Market actor (f05)."
      },
      "get_balance(string)": {
        "returns": {
          "_0": "the escrow balance and locked amount for an address."
        }
      },
      "get_deal_activation((uint64))": {
        "returns": {
          "_0": "USR_NOT_FOUND if the deal doesn't exist (yet), or EX_DEAL_EXPIRED if the deal has been removed from state."
        }
      },
      "get_deal_client((uint64))": {
        "returns": {
          "_0": "the client of a deal proposal."
        }
      },
      "get_deal_client_collateral((uint64))": {
        "returns": {
          "_0": "the client collateral requirement for a deal proposal."
        }
      },
      "get_deal_data_commitment((uint64))": {
        "details": "set data values correctly, currently returning fixed data, feel free to adjust in your local mock.",
        "returns": {
          "_0": "the data commitment and size of a deal proposal."
        }
      },
      "get_deal_label((uint64))": {
        "returns": {
          "_0": "the label of a deal proposal."
        }
      },
      "get_deal_provider((uint64))": {
        "returns": {
          "_0": "the provider of a deal proposal."
        }
      },
      "get_deal_provider_collateral((uint64))": {
        "returns": {
          "_0": "the provider collateral requirement for a deal proposal."
        }
      },
      "get_deal_term((uint64))": {
        "returns": {
          "_0": "the start epoch and duration (in epochs) of a deal proposal."
        }
      },
      "get_deal_total_price((uint64))": {
        "returns": {
          "_0": "the per-epoch price of a deal proposal."
        }
      },
      "get_deal_verified((uint64))": {
        "returns": {
          "_0": "the verified flag for a deal proposal."
        }
      },
      "withdraw_balance((string,uint256))": {
        "details": "This method should be called by an approved address, but the mock does not check that the caller is an approved party.Because this is a mock method, no real balance is deposited in the designated address, nor decremented from the Storage Market actor (f05)."
      }
    },
    "title": "This contract is a proxy to the singleton Storage Market actor (address: f05). Calling one of its methods will result in a cross-actor call being performed. However, in this mock library, no actual call is performed.",
    "version": 1
  },
  "userdoc": {
    "kind": "user",
    "methods": {
      "add_balance((string))": {
        "notice": "Deposits the received value into the balance held in escrow."
      },
      "get_deal_activation((uint64))": {
        "notice": "Fetches activation state for a deal.This will be available from when the proposal is published until an undefined period after the deal finishes (either normally or by termination)."
      },
      "get_deal_data_commitment((uint64))": {
        "notice": "This will be available after the deal is published (whether or not is is activated) and up until some undefined period after it is terminated."
      },
      "get_deal_verified((uint64))": {
        "notice": "Note that the source of truth for verified allocations and claims is the verified registry actor."
      },
      "publish_storage_deals(bytes,address)": {
        "notice": "Publish a new set of storage deals (not yet included in a sector)."
      },
      "withdraw_balance((string,uint256))": {
        "notice": "Attempt to withdraw the specified amount from the balance held in escrow.If less than the specified amount is available, yields the entire available balance."
      }
    },
    "version": 1
  }
}