{
  "contractName": "MinerAPI",
  "abi": [
    {
      "inputs": [
        {
          "internalType": "string",
          "name": "_owner",
          "type": "string"
        }
      ],
      "stateMutability": "nonpayable",
      "type": "constructor"
    },
    {
      "inputs": [
        {
          "internalType": "string",
          "name": "addr",
          "type": "string"
        }
      ],
      "name": "mock_set_owner",
      "outputs": [],
      "stateMutability": "nonpayable",
      "type": "function"
    },
    {
      "inputs": [],
      "name": "get_owner",
      "outputs": [
        {
          "components": [
            {
              "internalType": "string",
              "name": "owner",
              "type": "string"
            }
          ],
          "internalType": "struct MinerTypes.GetOwnerReturn",
          "name": "",
          "type": "tuple"
        }
      ],
      "stateMutability": "view",
      "type": "function",
      "constant": true
    },
    {
      "inputs": [
        {
          "internalType": "string",
          "name": "addr",
          "type": "string"
        }
      ],
      "name": "change_owner_address",
      "outputs": [],
      "stateMutability": "nonpayable",
      "type": "function"
    },
    {
      "inputs": [],
      "name": "is_controlling_address",
      "outputs": [
        {
          "components": [
            {
              "internalType": "bool",
              "name": "is_controlling",
              "type": "bool"
            }
          ],
          "internalType": "struct MinerTypes.IsControllingAddressReturn",
          "name": "",
          "type": "tuple"
        }
      ],
      "stateMutability": "pure",
      "type": "function",
      "constant": true
    },
    {
      "inputs": [],
      "name": "get_sector_size",
      "outputs": [
        {
          "components": [
            {
              "internalType": "uint64",
              "name": "sector_size",
              "type": "uint64"
            }
          ],
          "internalType": "struct MinerTypes.GetSectorSizeReturn",
          "name": "",
          "type": "tuple"
        }
      ],
      "stateMutability": "view",
      "type": "function",
      "constant": true
    },
    {
      "inputs": [],
      "name": "get_available_balance",
      "outputs": [
        {
          "components": [
            {
              "internalType": "int256",
              "name": "available_balance",
              "type": "int256"
            }
          ],
          "internalType": "struct MinerTypes.GetAvailableBalanceReturn",
          "name": "",
          "type": "tuple"
        }
      ],
      "stateMutability": "pure",
      "type": "function",
      "constant": true
    },
    {
      "inputs": [],
      "name": "get_vesting_funds",
      "outputs": [
        {
          "components": [
            {
              "components": [
                {
                  "internalType": "int64",
                  "name": "epoch",
                  "type": "int64"
                },
                {
                  "internalType": "int256",
                  "name": "amount",
                  "type": "int256"
                }
              ],
              "internalType": "struct CommonTypes.VestingFunds[]",
              "name": "vesting_funds",
              "type": "tuple[]"
            }
          ],
          "internalType": "struct MinerTypes.GetVestingFundsReturn",
          "name": "",
          "type": "tuple"
        }
      ],
      "stateMutability": "pure",
      "type": "function",
      "constant": true
    },
    {
      "inputs": [
        {
          "components": [
            {
              "internalType": "string",
              "name": "new_beneficiary",
              "type": "string"
            },
            {
              "internalType": "int256",
              "name": "new_quota",
              "type": "int256"
            },
            {
              "internalType": "uint64",
              "name": "new_expiration",
              "type": "uint64"
            }
          ],
          "internalType": "struct MinerTypes.ChangeBeneficiaryParams",
          "name": "params",
          "type": "tuple"
        }
      ],
      "name": "change_beneficiary",
      "outputs": [],
      "stateMutability": "nonpayable",
      "type": "function"
    },
    {
      "inputs": [],
      "name": "get_beneficiary",
      "outputs": [
        {
          "components": [
            {
              "components": [
                {
                  "internalType": "string",
                  "name": "beneficiary",
                  "type": "string"
                },
                {
                  "components": [
                    {
                      "internalType": "int256",
                      "name": "quota",
                      "type": "int256"
                    },
                    {
                      "internalType": "int256",
                      "name": "used_quota",
                      "type": "int256"
                    },
                    {
                      "internalType": "uint64",
                      "name": "expiration",
                      "type": "uint64"
                    }
                  ],
                  "internalType": "struct CommonTypes.BeneficiaryTerm",
                  "name": "term",
                  "type": "tuple"
                }
              ],
              "internalType": "struct CommonTypes.ActiveBeneficiary",
              "name": "active",
              "type": "tuple"
            },
            {
              "components": [
                {
                  "internalType": "bytes",
                  "name": "new_beneficiary",
                  "type": "bytes"
                },
                {
                  "internalType": "int256",
                  "name": "new_quota",
                  "type": "int256"
                },
                {
                  "internalType": "uint64",
                  "name": "new_expiration",
                  "type": "uint64"
                },
                {
                  "internalType": "bool",
                  "name": "approved_by_beneficiary",
                  "type": "bool"
                },
                {
                  "internalType": "bool",
                  "name": "approved_by_nominee",
                  "type": "bool"
                }
              ],
              "internalType": "struct CommonTypes.PendingBeneficiaryChange",
              "name": "proposed",
              "type": "tuple"
            }
          ],
          "internalType": "struct MinerTypes.GetBeneficiaryReturn",
          "name": "",
          "type": "tuple"
        }
      ],
      "stateMutability": "view",
      "type": "function",
      "constant": true
    }
  ],
  "bytecode": "0x60806040526000600160006101000a81548160ff0219169083151502179055503480156200002c57600080fd5b5060405162001a9b38038062001a9b833981810160405281019062000052919062000408565b8060009081620000639190620006a4565b50610800600660008060048111156200008157620000806200078b565b5b60048111156200009657620000956200078b565b5b815260200190815260200160002060006101000a81548167ffffffffffffffff021916908367ffffffffffffffff160217905550628000006006600060016004811115620000e957620000e86200078b565b5b6004811115620000fe57620000fd6200078b565b5b815260200190815260200160002060006101000a81548167ffffffffffffffff021916908367ffffffffffffffff160217905550632000000060066000600260048111156200015257620001516200078b565b5b60048111156200016757620001666200078b565b5b815260200190815260200160002060006101000a81548167ffffffffffffffff021916908367ffffffffffffffff1602179055506408000000006006600060036004811115620001bc57620001bb6200078b565b5b6004811115620001d157620001d06200078b565b5b815260200190815260200160002060006101000a81548167ffffffffffffffff021916908367ffffffffffffffff160217905550641000000000600660006004808111156200022557620002246200078b565b5b60048111156200023a57620002396200078b565b5b815260200190815260200160002060006101000a81548167ffffffffffffffff021916908367ffffffffffffffff16021790555050620007ba565b6000604051905090565b600080fd5b600080fd5b600080fd5b600080fd5b6000601f19601f8301169050919050565b7f4e487b7100000000000000000000000000000000000000000000000000000000600052604160045260246000fd5b620002de8262000293565b810181811067ffffffffffffffff821117156200030057620002ff620002a4565b5b80604052505050565b60006200031562000275565b9050620003238282620002d3565b919050565b600067ffffffffffffffff821115620003465762000345620002a4565b5b620003518262000293565b9050602081019050919050565b60005b838110156200037e57808201518184015260208101905062000361565b60008484015250505050565b6000620003a16200039b8462000328565b62000309565b905082815260208101848484011115620003c057620003bf6200028e565b5b620003cd8482856200035e565b509392505050565b600082601f830112620003ed57620003ec62000289565b5b8151620003ff8482602086016200038a565b91505092915050565b6000602082840312156200042157620004206200027f565b5b600082015167ffffffffffffffff81111562000442576200044162000284565b5b6200045084828501620003d5565b91505092915050565b600081519050919050565b7f4e487b7100000000000000000000000000000000000000000000000000000000600052602260045260246000fd5b60006002820490506001821680620004ac57607f821691505b602082108103620004c257620004c162000464565b5b50919050565b60008190508160005260206000209050919050565b60006020601f8301049050919050565b600082821b905092915050565b6000600883026200052c7fffffffffffffffffffffffffffffffffffffffffffffffffffffffffffffffff82620004ed565b620005388683620004ed565b95508019841693508086168417925050509392505050565b6000819050919050565b6000819050919050565b6000620005856200057f620005798462000550565b6200055a565b62000550565b9050919050565b6000819050919050565b620005a18362000564565b620005b9620005b0826200058c565b848454620004fa565b825550505050565b600090565b620005d0620005c1565b620005dd81848462000596565b505050565b5b818110156200060557620005f9600082620005c6565b600181019050620005e3565b5050565b601f82111562000654576200061e81620004c8565b6200062984620004dd565b8101602085101562000639578190505b620006516200064885620004dd565b830182620005e2565b50505b505050565b600082821c905092915050565b6000620006796000198460080262000659565b1980831691505092915050565b600062000694838362000666565b9150826002028217905092915050565b620006af8262000459565b67ffffffffffffffff811115620006cb57620006ca620002a4565b5b620006d7825462000493565b620006e482828562000609565b600060209050601f8311600181146200071c576000841562000707578287015190505b62000713858262000686565b86555062000783565b601f1984166200072c86620004c8565b60005b8281101562000756578489015182556001820191506020850194506020810190506200072f565b8683101562000776578489015162000772601f89168262000666565b8355505b6001600288020188555050505b505050505050565b7f4e487b7100000000000000000000000000000000000000000000000000000000600052602160045260246000fd5b6112d180620007ca6000396000f3fe608060405234801561001057600080fd5b50600436106100935760003560e01c806381ab68dd1161006657806381ab68dd1461010e578063a9b494a11461012a578063d9fc907e14610148578063ebd2da5714610166578063f5cd020c1461018457610093565b80630ac298dc14610098578063207f2cec146100b6578063214c471c146100d257806359cf9e17146100f0575b600080fd5b6100a06101a0565b6040516100ad9190610884565b60405180910390f35b6100d060048036038101906100cb91906109ef565b610260565b005b6100da610273565b6040516100e79190610b75565b60405180910390f35b6100f861032d565b6040516101059190610bb3565b60405180910390f35b61012860048036038101906101239190610cc4565b610353565b005b61013261049a565b60405161013f9190610d38565b60405180910390f35b61015061050c565b60405161015d9190610efc565b60405180910390f35b61016e610648565b60405161017b9190610f3a565b60405180910390f35b61019e600480360381019061019991906109ef565b610667565b005b6101a8610694565b60008080546101b690610f84565b9050036101c257600080fd5b6040518060200160405280600080546101da90610f84565b80601f016020809104026020016040519081016040528092919081815260200182805461020690610f84565b80156102535780601f1061022857610100808354040283529160200191610253565b820191906000526020600020905b81548152906001019060200180831161023657829003601f168201915b5050505050815250905090565b806000908161026f919061116b565b5050565b61027b6106a7565b6000600167ffffffffffffffff811115610298576102976108c4565b5b6040519080825280602002602001820160405280156102d157816020015b6102be6106ba565b8152602001906001900390816102b65790505b5090506040518060400160405280636373840960070b8152602001686c6b935b8bbd4000008152508160008151811061030d5761030c61123d565b5b602002602001018190525060405180602001604052808281525091505090565b6103356106d7565b604051806020016040528069021e19e0c9bab2400000815250905090565b600160009054906101000a900460ff1661043b57600060405180606001604052808360200151815260200160008152602001836040015167ffffffffffffffff16815250905060405180604001604052808360000151815260200182815250600260008201518160000190816103c9919061116b565b50602082015181600101600082015181600001556020820151816001015560408201518160020160006101000a81548167ffffffffffffffff021916908367ffffffffffffffff160217905550505090505060018060006101000a81548160ff02191690831515021790555050610497565b806000015160026000019081610451919061116b565b5080602001516002600101600001819055508060400151600260010160020160006101000a81548167ffffffffffffffff021916908367ffffffffffffffff1602179055505b50565b6104a26106ea565b604051806020016040528060066000600160048111156104c5576104c461126c565b5b60048111156104d7576104d661126c565b5b815260200190815260200160002060009054906101000a900467ffffffffffffffff1667ffffffffffffffff16815250905090565b610514610707565b600160009054906101000a900460ff1661052d57600080fd5b61053561072d565b6040518060400160405280600260405180604001604052908160008201805461055d90610f84565b80601f016020809104026020016040519081016040528092919081815260200182805461058990610f84565b80156105d65780601f106105ab576101008083540402835291602001916105d6565b820191906000526020600020905b8154815290600101906020018083116105b957829003601f168201915b505050505081526020016001820160405180606001604052908160008201548152602001600182015481526020016002820160009054906101000a900467ffffffffffffffff1667ffffffffffffffff1667ffffffffffffffff16815250508152505081526020018281525091505090565b61065061076a565b604051806020016040528060001515815250905090565b600080805461067590610f84565b90501461068157600080fd5b8060009081610690919061116b565b5050565b6040518060200160405280606081525090565b6040518060200160405280606081525090565b6040518060400160405280600060070b8152602001600081525090565b6040518060200160405280600081525090565b6040518060200160405280600067ffffffffffffffff1681525090565b604051806040016040528061071a61077f565b815260200161072761072d565b81525090565b6040518060a001604052806060815260200160008152602001600067ffffffffffffffff1681526020016000151581526020016000151581525090565b60405180602001604052806000151581525090565b60405180604001604052806060815260200161079961079f565b81525090565b60405180606001604052806000815260200160008152602001600067ffffffffffffffff1681525090565b600081519050919050565b600082825260208201905092915050565b60005b838110156108045780820151818401526020810190506107e9565b60008484015250505050565b6000601f19601f8301169050919050565b600061082c826107ca565b61083681856107d5565b93506108468185602086016107e6565b61084f81610810565b840191505092915050565b600060208301600083015184820360008601526108778282610821565b9150508091505092915050565b6000602082019050818103600083015261089e818461085a565b905092915050565b6000604051905090565b600080fd5b600080fd5b600080fd5b600080fd5b7f4e487b7100000000000000000000000000000000000000000000000000000000600052604160045260246000fd5b6108fc82610810565b810181811067ffffffffffffffff8211171561091b5761091a6108c4565b5b80604052505050565b600061092e6108a6565b905061093a82826108f3565b919050565b600067ffffffffffffffff82111561095a576109596108c4565b5b61096382610810565b9050602081019050919050565b82818337600083830152505050565b600061099261098d8461093f565b610924565b9050828152602081018484840111156109ae576109ad6108bf565b5b6109b9848285610970565b509392505050565b600082601f8301126109d6576109d56108ba565b5b81356109e684826020860161097f565b91505092915050565b600060208284031215610a0557610a046108b0565b5b600082013567ffffffffffffffff811115610a2357610a226108b5565b5b610a2f848285016109c1565b91505092915050565b600081519050919050565b600082825260208201905092915050565b6000819050602082019050919050565b60008160070b9050919050565b610a7a81610a64565b82525050565b6000819050919050565b610a9381610a80565b82525050565b604082016000820151610aaf6000850182610a71565b506020820151610ac26020850182610a8a565b50505050565b6000610ad48383610a99565b60408301905092915050565b6000602082019050919050565b6000610af882610a38565b610b028185610a43565b9350610b0d83610a54565b8060005b83811015610b3e578151610b258882610ac8565b9750610b3083610ae0565b925050600181019050610b11565b5085935050505092915050565b60006020830160008301518482036000860152610b688282610aed565b9150508091505092915050565b60006020820190508181036000830152610b8f8184610b4b565b905092915050565b602082016000820151610bad6000850182610a8a565b50505050565b6000602082019050610bc86000830184610b97565b92915050565b600080fd5b600080fd5b610be181610a80565b8114610bec57600080fd5b50565b600081359050610bfe81610bd8565b92915050565b600067ffffffffffffffff82169050919050565b610c2181610c04565b8114610c2c57600080fd5b50565b600081359050610c3e81610c18565b92915050565b600060608284031215610c5a57610c59610bce565b5b610c646060610924565b9050600082013567ffffffffffffffff811115610c8457610c83610bd3565b5b610c90848285016109c1565b6000830152506020610ca484828501610bef565b6020830152506040610cb884828501610c2f565b60408301525092915050565b600060208284031215610cda57610cd96108b0565b5b600082013567ffffffffffffffff811115610cf857610cf76108b5565b5b610d0484828501610c44565b91505092915050565b610d1681610c04565b82525050565b602082016000820151610d326000850182610d0d565b50505050565b6000602082019050610d4d6000830184610d1c565b92915050565b606082016000820151610d696000850182610a8a565b506020820151610d7c6020850182610a8a565b506040820151610d8f6040850182610d0d565b50505050565b60006080830160008301518482036000860152610db28282610821565b9150506020830151610dc76020860182610d53565b508091505092915050565b600081519050919050565b600082825260208201905092915050565b6000610df982610dd2565b610e038185610ddd565b9350610e138185602086016107e6565b610e1c81610810565b840191505092915050565b60008115159050919050565b610e3c81610e27565b82525050565b600060a0830160008301518482036000860152610e5f8282610dee565b9150506020830151610e746020860182610a8a565b506040830151610e876040860182610d0d565b506060830151610e9a6060860182610e33565b506080830151610ead6080860182610e33565b508091505092915050565b60006040830160008301518482036000860152610ed58282610d95565b91505060208301518482036020860152610eef8282610e42565b9150508091505092915050565b60006020820190508181036000830152610f168184610eb8565b905092915050565b602082016000820151610f346000850182610e33565b50505050565b6000602082019050610f4f6000830184610f1e565b92915050565b7f4e487b7100000000000000000000000000000000000000000000000000000000600052602260045260246000fd5b60006002820490506001821680610f9c57607f821691505b602082108103610faf57610fae610f55565b5b50919050565b60008190508160005260206000209050919050565b60006020601f8301049050919050565b600082821b905092915050565b6000600883026110177fffffffffffffffffffffffffffffffffffffffffffffffffffffffffffffffff82610fda565b6110218683610fda565b95508019841693508086168417925050509392505050565b6000819050919050565b6000819050919050565b600061106861106361105e84611039565b611043565b611039565b9050919050565b6000819050919050565b6110828361104d565b61109661108e8261106f565b848454610fe7565b825550505050565b600090565b6110ab61109e565b6110b6818484611079565b505050565b5b818110156110da576110cf6000826110a3565b6001810190506110bc565b5050565b601f82111561111f576110f081610fb5565b6110f984610fca565b81016020851015611108578190505b61111c61111485610fca565b8301826110bb565b50505b505050565b600082821c905092915050565b600061114260001984600802611124565b1980831691505092915050565b600061115b8383611131565b9150826002028217905092915050565b611174826107ca565b67ffffffffffffffff81111561118d5761118c6108c4565b5b6111978254610f84565b6111a28282856110de565b600060209050601f8311600181146111d557600084156111c3578287015190505b6111cd858261114f565b865550611235565b601f1984166111e386610fb5565b60005b8281101561120b578489015182556001820191506020850194506020810190506111e6565b868310156112285784890151611224601f891682611131565b8355505b6001600288020188555050505b505050505050565b7f4e487b7100000000000000000000000000000000000000000000000000000000600052603260045260246000fd5b7f4e487b7100000000000000000000000000000000000000000000000000000000600052602160045260246000fdfea2646970667358221220e87384e520308f828211d8bdb5ab0dc2a4e2448fa7c4696ba245c225bf574a4f64736f6c63430008110033",
  "immutableReferences": {},
  "source": "// SPDX-License-Identifier: Apache-2.0\npragma solidity >=0.4.25 <=0.8.17;\n\nimport \"./types/MinerTypes.sol\";\n\n/// @title This contract is a proxy to a built-in Miner actor. Calling one of its methods will result in a cross-actor call being performed. However, in this mock library, no actual call is performed.\n/// @author Zondax AG\n/// @dev Methods prefixed with mock_ will not be available in the real library. These methods are merely used to set mock state. Note that this interface will likely break in the future as we align it\n//       with that of the real library!\ncontract MinerAPI {\n    string owner;\n    bool isBeneficiarySet = false;\n    CommonTypes.ActiveBeneficiary activeBeneficiary;\n    mapping(CommonTypes.SectorSize => uint64) sectorSizesBytes;\n\n    /// @notice (Mock method) Sets the owner of a Miner on contract deployment, which will be returned via get_owner().\n    constructor(string memory _owner) {\n        owner = _owner;\n\n        sectorSizesBytes[CommonTypes.SectorSize._2KiB] = 2 << 10;\n        sectorSizesBytes[CommonTypes.SectorSize._8MiB] = 8 << 20;\n        sectorSizesBytes[CommonTypes.SectorSize._512MiB] = 512 << 20;\n        sectorSizesBytes[CommonTypes.SectorSize._32GiB] = 32 << 30;\n        sectorSizesBytes[CommonTypes.SectorSize._64GiB] = 2 * (32 << 30);\n    }\n\n    /// @notice (Mock method) Sets the owner of a Miner, which will be returned via get_owner().\n    function mock_set_owner(string memory addr) public {\n        require(bytes(owner).length == 0);\n        owner = addr;\n    }\n\n    /// @notice Income and returned collateral are paid to this address\n    /// @notice This address is also allowed to change the worker address for the miner\n    /// @return the owner address of a Miner\n    function get_owner()\n        public\n        view\n        returns (MinerTypes.GetOwnerReturn memory)\n    {\n        require(bytes(owner).length != 0);\n\n        return MinerTypes.GetOwnerReturn(owner);\n    }\n\n    /// @param addr New owner address\n    /// @notice Proposes or confirms a change of owner address.\n    /// @notice If invoked by the current owner, proposes a new owner address for confirmation. If the proposed address is the current owner address, revokes any existing proposal that proposed address.\n    function change_owner_address(string memory addr) public {\n        owner = addr;\n    }\n\n    /// @return Whether the provided address is \"controlling\".\n    function is_controlling_address(\n        //MinerTypes.IsControllingAddressParam memory params\n    ) public pure returns (MinerTypes.IsControllingAddressReturn memory) {\n        return MinerTypes.IsControllingAddressReturn(false);\n    }\n\n    /// @return the miner's sector size.\n    function get_sector_size()\n        public\n        view\n        returns (MinerTypes.GetSectorSizeReturn memory)\n    {\n        return\n            MinerTypes.GetSectorSizeReturn(\n                sectorSizesBytes[CommonTypes.SectorSize._8MiB]\n            );\n    }\n\n    /// @notice This is calculated as actor balance - (vesting funds + pre-commit deposit + initial pledge requirement + fee debt)\n    /// @notice Can go negative if the miner is in IP debt.\n    /// @return the available balance of this miner.\n    function get_available_balance()\n        public\n        pure\n        returns (MinerTypes.GetAvailableBalanceReturn memory)\n    {\n        return MinerTypes.GetAvailableBalanceReturn(10000000000000000000000);\n    }\n\n    /// @return the funds vesting in this miner as a list of (vesting_epoch, vesting_amount) tuples.\n    function get_vesting_funds()\n        public\n        pure\n        returns (MinerTypes.GetVestingFundsReturn memory)\n    {\n        CommonTypes.VestingFunds[]\n            memory vesting_funds = new CommonTypes.VestingFunds[](1);\n        vesting_funds[0] = CommonTypes.VestingFunds(\n            1668514825,\n            2000000000000000000000\n        );\n\n        return MinerTypes.GetVestingFundsReturn(vesting_funds);\n    }\n\n    /// @notice Proposes or confirms a change of beneficiary address.\n    /// @notice A proposal must be submitted by the owner, and takes effect after approval of both the proposed beneficiary and current beneficiary, if applicable, any current beneficiary that has time and quota remaining.\n    /// @notice See FIP-0029, https://github.com/filecoin-project/FIPs/blob/master/FIPS/fip-0029.md\n    function change_beneficiary(\n        MinerTypes.ChangeBeneficiaryParams memory params\n    ) public {\n        if (!isBeneficiarySet) {\n            CommonTypes.BeneficiaryTerm memory term = CommonTypes\n                .BeneficiaryTerm(params.new_quota, 0, params.new_expiration);\n            activeBeneficiary = CommonTypes.ActiveBeneficiary(\n                params.new_beneficiary,\n                term\n            );\n            isBeneficiarySet = true;\n        } else {\n            activeBeneficiary.beneficiary = params.new_beneficiary;\n            activeBeneficiary.term.quota = params.new_quota;\n            activeBeneficiary.term.expiration = params.new_expiration;\n        }\n    }\n\n    /// @notice This method is for use by other actors (such as those acting as beneficiaries), and to abstract the state representation for clients.\n    /// @notice Retrieves the currently active and proposed beneficiary information.\n    function get_beneficiary()\n        public\n        view\n        returns (MinerTypes.GetBeneficiaryReturn memory)\n    {\n        require(isBeneficiarySet);\n\n        CommonTypes.PendingBeneficiaryChange memory proposed;\n        return MinerTypes.GetBeneficiaryReturn(activeBeneficiary, proposed);\n    }\n}",
  "sourcePath": "/Users/user/Desktop/fevm/contracts/MinerAPI.sol",
  "compiler": {
    "name": "solc",
    "version": "0.8.17+commit.8df45f5f.Emscripten.clang"
  },
  "schemaVersion": "3.4.10",
  "updatedAt": "2022-11-19T23:43:08.609Z",
  "networkType": "ethereum",
  "devdoc": {
    "author": "Zondax AG",
    "details": "Methods prefixed with mock_ will not be available in the real library. These methods are merely used to set mock state. Note that this interface will likely break in the future as we align it",
    "kind": "dev",
    "methods": {
      "change_owner_address(string)": {
        "params": {
          "addr": "New owner address"
        }
      },
      "get_available_balance()": {
        "returns": {
          "_0": "the available balance of this miner."
        }
      },
      "get_owner()": {
        "returns": {
          "_0": "the owner address of a Miner"
        }
      },
      "get_sector_size()": {
        "returns": {
          "_0": "the miner's sector size."
        }
      },
      "get_vesting_funds()": {
        "returns": {
          "_0": "the funds vesting in this miner as a list of (vesting_epoch, vesting_amount) tuples."
        }
      },
      "is_controlling_address()": {
        "returns": {
          "_0": "Whether the provided address is \"controlling\"."
        }
      }
    },
    "title": "This contract is a proxy to a built-in Miner actor. Calling one of its methods will result in a cross-actor call being performed. However, in this mock library, no actual call is performed.",
    "version": 1
  },
  "userdoc": {
    "kind": "user",
    "methods": {
      "change_beneficiary((string,int256,uint64))": {
        "notice": "Proposes or confirms a change of beneficiary address.A proposal must be submitted by the owner, and takes effect after approval of both the proposed beneficiary and current beneficiary, if applicable, any current beneficiary that has time and quota remaining.See FIP-0029, https://github.com/filecoin-project/FIPs/blob/master/FIPS/fip-0029.md"
      },
      "change_owner_address(string)": {
        "notice": "Proposes or confirms a change of owner address.If invoked by the current owner, proposes a new owner address for confirmation. If the proposed address is the current owner address, revokes any existing proposal that proposed address."
      },
      "constructor": {
        "notice": "(Mock method) Sets the owner of a Miner on contract deployment, which will be returned via get_owner()."
      },
      "get_available_balance()": {
        "notice": "This is calculated as actor balance - (vesting funds + pre-commit deposit + initial pledge requirement + fee debt)Can go negative if the miner is in IP debt."
      },
      "get_beneficiary()": {
        "notice": "This method is for use by other actors (such as those acting as beneficiaries), and to abstract the state representation for clients.Retrieves the currently active and proposed beneficiary information."
      },
      "get_owner()": {
        "notice": "Income and returned collateral are paid to this addressThis address is also allowed to change the worker address for the miner"
      },
      "mock_set_owner(string)": {
        "notice": "(Mock method) Sets the owner of a Miner, which will be returned via get_owner()."
      }
    },
    "version": 1
  }
}